{
    "abi": [
        {
            "type": "constructor",
            "inputs": [],
            "stateMutability": "nonpayable"
        },
        {
            "type": "function",
            "name": "DEFAULT_ADMIN_ROLE",
            "inputs": [],
            "outputs": [
                {
                    "name": "",
                    "type": "bytes32",
                    "internalType": "bytes32"
                }
            ],
            "stateMutability": "view"
        },
        {
            "type": "function",
            "name": "MINTER_ROLE",
            "inputs": [],
            "outputs": [
                {
                    "name": "",
                    "type": "bytes32",
                    "internalType": "bytes32"
                }
            ],
            "stateMutability": "view"
        },
        {
            "type": "function",
            "name": "allowance",
            "inputs": [
                {
                    "name": "owner",
                    "type": "address",
                    "internalType": "address"
                },
                {
                    "name": "spender",
                    "type": "address",
                    "internalType": "address"
                }
            ],
            "outputs": [
                {
                    "name": "",
                    "type": "uint256",
                    "internalType": "uint256"
                }
            ],
            "stateMutability": "view"
        },
        {
            "type": "function",
            "name": "approve",
            "inputs": [
                {
                    "name": "spender",
                    "type": "address",
                    "internalType": "address"
                },
                {
                    "name": "value",
                    "type": "uint256",
                    "internalType": "uint256"
                }
            ],
            "outputs": [
                {
                    "name": "",
                    "type": "bool",
                    "internalType": "bool"
                }
            ],
            "stateMutability": "nonpayable"
        },
        {
            "type": "function",
            "name": "balanceOf",
            "inputs": [
                {
                    "name": "account",
                    "type": "address",
                    "internalType": "address"
                }
            ],
            "outputs": [
                {
                    "name": "",
                    "type": "uint256",
                    "internalType": "uint256"
                }
            ],
            "stateMutability": "view"
        },
        {
            "type": "function",
            "name": "decimals",
            "inputs": [],
            "outputs": [
                {
                    "name": "",
                    "type": "uint8",
                    "internalType": "uint8"
                }
            ],
            "stateMutability": "view"
        },
        {
            "type": "function",
            "name": "getRoleAdmin",
            "inputs": [
                {
                    "name": "role",
                    "type": "bytes32",
                    "internalType": "bytes32"
                }
            ],
            "outputs": [
                {
                    "name": "",
                    "type": "bytes32",
                    "internalType": "bytes32"
                }
            ],
            "stateMutability": "view"
        },
        {
            "type": "function",
            "name": "grantRole",
            "inputs": [
                {
                    "name": "role",
                    "type": "bytes32",
                    "internalType": "bytes32"
                },
                {
                    "name": "account",
                    "type": "address",
                    "internalType": "address"
                }
            ],
            "outputs": [],
            "stateMutability": "nonpayable"
        },
        {
            "type": "function",
            "name": "hasRole",
            "inputs": [
                {
                    "name": "role",
                    "type": "bytes32",
                    "internalType": "bytes32"
                },
                {
                    "name": "account",
                    "type": "address",
                    "internalType": "address"
                }
            ],
            "outputs": [
                {
                    "name": "",
                    "type": "bool",
                    "internalType": "bool"
                }
            ],
            "stateMutability": "view"
        },
        {
            "type": "function",
            "name": "mint",
            "inputs": [
                {
                    "name": "to",
                    "type": "address",
                    "internalType": "address"
                },
                {
                    "name": "amount",
                    "type": "uint256",
                    "internalType": "uint256"
                }
            ],
            "outputs": [],
            "stateMutability": "nonpayable"
        },
        {
            "type": "function",
            "name": "name",
            "inputs": [],
            "outputs": [
                {
                    "name": "",
                    "type": "string",
                    "internalType": "string"
                }
            ],
            "stateMutability": "view"
        },
        {
            "type": "function",
            "name": "renounceRole",
            "inputs": [
                {
                    "name": "role",
                    "type": "bytes32",
                    "internalType": "bytes32"
                },
                {
                    "name": "callerConfirmation",
                    "type": "address",
                    "internalType": "address"
                }
            ],
            "outputs": [],
            "stateMutability": "nonpayable"
        },
        {
            "type": "function",
            "name": "revokeRole",
            "inputs": [
                {
                    "name": "role",
                    "type": "bytes32",
                    "internalType": "bytes32"
                },
                {
                    "name": "account",
                    "type": "address",
                    "internalType": "address"
                }
            ],
            "outputs": [],
            "stateMutability": "nonpayable"
        },
        {
            "type": "function",
            "name": "supportsInterface",
            "inputs": [
                {
                    "name": "interfaceId",
                    "type": "bytes4",
                    "internalType": "bytes4"
                }
            ],
            "outputs": [
                {
                    "name": "",
                    "type": "bool",
                    "internalType": "bool"
                }
            ],
            "stateMutability": "view"
        },
        {
            "type": "function",
            "name": "symbol",
            "inputs": [],
            "outputs": [
                {
                    "name": "",
                    "type": "string",
                    "internalType": "string"
                }
            ],
            "stateMutability": "view"
        },
        {
            "type": "function",
            "name": "totalSupply",
            "inputs": [],
            "outputs": [
                {
                    "name": "",
                    "type": "uint256",
                    "internalType": "uint256"
                }
            ],
            "stateMutability": "view"
        },
        {
            "type": "function",
            "name": "transfer",
            "inputs": [
                {
                    "name": "to",
                    "type": "address",
                    "internalType": "address"
                },
                {
                    "name": "value",
                    "type": "uint256",
                    "internalType": "uint256"
                }
            ],
            "outputs": [
                {
                    "name": "",
                    "type": "bool",
                    "internalType": "bool"
                }
            ],
            "stateMutability": "nonpayable"
        },
        {
            "type": "function",
            "name": "transferFrom",
            "inputs": [
                {
                    "name": "from",
                    "type": "address",
                    "internalType": "address"
                },
                {
                    "name": "to",
                    "type": "address",
                    "internalType": "address"
                },
                {
                    "name": "value",
                    "type": "uint256",
                    "internalType": "uint256"
                }
            ],
            "outputs": [
                {
                    "name": "",
                    "type": "bool",
                    "internalType": "bool"
                }
            ],
            "stateMutability": "nonpayable"
        },
        {
            "type": "event",
            "name": "Approval",
            "inputs": [
                {
                    "name": "owner",
                    "type": "address",
                    "indexed": true,
                    "internalType": "address"
                },
                {
                    "name": "spender",
                    "type": "address",
                    "indexed": true,
                    "internalType": "address"
                },
                {
                    "name": "value",
                    "type": "uint256",
                    "indexed": false,
                    "internalType": "uint256"
                }
            ],
            "anonymous": false
        },
        {
            "type": "event",
            "name": "RoleAdminChanged",
            "inputs": [
                {
                    "name": "role",
                    "type": "bytes32",
                    "indexed": true,
                    "internalType": "bytes32"
                },
                {
                    "name": "previousAdminRole",
                    "type": "bytes32",
                    "indexed": true,
                    "internalType": "bytes32"
                },
                {
                    "name": "newAdminRole",
                    "type": "bytes32",
                    "indexed": true,
                    "internalType": "bytes32"
                }
            ],
            "anonymous": false
        },
        {
            "type": "event",
            "name": "RoleGranted",
            "inputs": [
                {
                    "name": "role",
                    "type": "bytes32",
                    "indexed": true,
                    "internalType": "bytes32"
                },
                {
                    "name": "account",
                    "type": "address",
                    "indexed": true,
                    "internalType": "address"
                },
                {
                    "name": "sender",
                    "type": "address",
                    "indexed": true,
                    "internalType": "address"
                }
            ],
            "anonymous": false
        },
        {
            "type": "event",
            "name": "RoleRevoked",
            "inputs": [
                {
                    "name": "role",
                    "type": "bytes32",
                    "indexed": true,
                    "internalType": "bytes32"
                },
                {
                    "name": "account",
                    "type": "address",
                    "indexed": true,
                    "internalType": "address"
                },
                {
                    "name": "sender",
                    "type": "address",
                    "indexed": true,
                    "internalType": "address"
                }
            ],
            "anonymous": false
        },
        {
            "type": "event",
            "name": "Transfer",
            "inputs": [
                {
                    "name": "from",
                    "type": "address",
                    "indexed": true,
                    "internalType": "address"
                },
                {
                    "name": "to",
                    "type": "address",
                    "indexed": true,
                    "internalType": "address"
                },
                {
                    "name": "value",
                    "type": "uint256",
                    "indexed": false,
                    "internalType": "uint256"
                }
            ],
            "anonymous": false
        },
        {
            "type": "error",
            "name": "AccessControlBadConfirmation",
            "inputs": []
        },
        {
            "type": "error",
            "name": "AccessControlUnauthorizedAccount",
            "inputs": [
                {
                    "name": "account",
                    "type": "address",
                    "internalType": "address"
                },
                {
                    "name": "neededRole",
                    "type": "bytes32",
                    "internalType": "bytes32"
                }
            ]
        },
        {
            "type": "error",
            "name": "ERC20InsufficientAllowance",
            "inputs": [
                {
                    "name": "spender",
                    "type": "address",
                    "internalType": "address"
                },
                {
                    "name": "allowance",
                    "type": "uint256",
                    "internalType": "uint256"
                },
                {
                    "name": "needed",
                    "type": "uint256",
                    "internalType": "uint256"
                }
            ]
        },
        {
            "type": "error",
            "name": "ERC20InsufficientBalance",
            "inputs": [
                {
                    "name": "sender",
                    "type": "address",
                    "internalType": "address"
                },
                {
                    "name": "balance",
                    "type": "uint256",
                    "internalType": "uint256"
                },
                {
                    "name": "needed",
                    "type": "uint256",
                    "internalType": "uint256"
                }
            ]
        },
        {
            "type": "error",
            "name": "ERC20InvalidApprover",
            "inputs": [
                {
                    "name": "approver",
                    "type": "address",
                    "internalType": "address"
                }
            ]
        },
        {
            "type": "error",
            "name": "ERC20InvalidReceiver",
            "inputs": [
                {
                    "name": "receiver",
                    "type": "address",
                    "internalType": "address"
                }
            ]
        },
        {
            "type": "error",
            "name": "ERC20InvalidSender",
            "inputs": [
                {
                    "name": "sender",
                    "type": "address",
                    "internalType": "address"
                }
            ]
        },
        {
            "type": "error",
            "name": "ERC20InvalidSpender",
            "inputs": [
                {
                    "name": "spender",
                    "type": "address",
                    "internalType": "address"
                }
            ]
        }
    ],
    "bytecode": {
        "object": "0x608060405234610027576100116101b5565b61001961002c565b61152461067f823961152490f35b610032565b60405190565b5f80fd5b601f801991011690565b634e487b7160e01b5f52604160045260245ffd5b9061005e90610036565b810190811060018060401b0382111761007657604052565b610040565b9061008e61008761002c565b9283610054565b565b60018060401b0381116100ac576100a8602091610036565b0190565b610040565b906100c36100be83610090565b61007b565b918252565b5f7f4865646765642042544300000000000000000000000000000000000000000000910152565b6100f9600a6100b1565b90610106602083016100c8565b565b6101106100ef565b90565b5f7f6842544300000000000000000000000000000000000000000000000000000000910152565b61014460046100b1565b9061015160208301610113565b565b61015b61013a565b90565b90565b90565b5f1b90565b61017d6101786101829261015e565b610164565b610161565b90565b61018e5f610169565b90565b7f9f2df0fed2c77648de5860a4cc508cd0818c85b8b8a1ab4ceeef8d981c8956a690565b6101ce6101c0610108565b6101c8610153565b906101f6565b6101e06101d9610185565b339061056b565b506101f36101ec610191565b339061056b565b50565b9061020091610202565b565b9061020c9161020e565b565b906102189161021a565b565b9061022491610489565b565b5190565b634e487b7160e01b5f52602260045260245ffd5b906001600283049216801561025e575b602083101461025957565b61022a565b91607f169161024e565b5f5260205f2090565b601f602091010490565b1b90565b9190600861029a9102916102945f198461027b565b9261027b565b9181191691161790565b90565b90565b6102be6102b96102c3926102a4565b6102a7565b6102a4565b90565b90565b91906102df6102da6102e7936102aa565b6102c6565b90835461027f565b9055565b5f90565b610301916102fb6102eb565b916102c9565b565b5f5b82811061031157505050565b806103205f60019385016102ef565b01610305565b9190601f8111610336575b505050565b818111610343575b610331565b61035861035261037694610268565b91610271565b91602061036482610271565b911061037e575b809101910390610303565b5f808061033e565b505f61036b565b1c90565b90610399905f1990600802610385565b191690565b816103a891610389565b906002021790565b906103ba81610226565b9060018060401b038211610478576103dc826103d6855461023e565b85610326565b602090601f8311600114610410579180916103ff935f92610404575b505061039e565b90555b565b90915001515f806103f8565b601f1983169161041f85610268565b925f5b81811061046057509160029391856001969410610446575b50505002019055610402565b610456910151601f841690610389565b90555f808061043a565b91936020600181928787015181550195019201610422565b610040565b90610487916103b0565b565b9061049861049f92600361047d565b600461047d565b565b5f90565b151590565b6104b390610161565b90565b906104c0906104aa565b5f5260205260405f2090565b60018060a01b031690565b6104eb6104e66104f0926104cc565b6102a7565b6104cc565b90565b6104fc906104d7565b90565b610508906104f3565b90565b90610515906104ff565b5f5260205260405f2090565b9061052d60ff91610164565b9181191691161790565b610540906104a5565b90565b90565b9061055b61055661056292610537565b610543565b8254610521565b9055565b5f0190565b6105736104a1565b50610588610582828490610643565b156104a5565b5f14610611576105b060016105ab5f6105a3600586906104b6565b01859061050b565b610546565b906105b9610671565b906105f66105f06105ea7f2f8788117e7eff1d82e926ec794901d17c78024a50270940304540a733656f0d956104aa565b926104ff565b926104ff565b926105ff61002c565b8061060981610566565b0390a4600190565b50505f90565b5f1c90565b60ff1690565b61062e61063391610617565b61061c565b90565b6106409054610622565b90565b61066a915f61065f610665936106576104a1565b5060056104b6565b0161050b565b610636565b90565b5f90565b61067961066d565b50339056fe60806040526004361015610013575b610857565b61001d5f3561013c565b806301ffc9a71461013757806306fdde0314610132578063095ea7b31461012d57806318160ddd1461012857806323b872dd14610123578063248a9ca31461011e5780632f2ff15d14610119578063313ce5671461011457806336568abe1461010f57806340c10f191461010a57806370a082311461010557806391d148541461010057806395d89b41146100fb578063a217fddf146100f6578063a9059cbb146100f1578063d5391393146100ec578063d547741f146100e75763dd62ed3e0361000e57610821565b6107c0565b61078b565b610726565b6106f1565b610681565b61064b565b610616565b6105c4565b610590565b61055b565b6104ff565b610498565b6103fc565b61038d565b610335565b610273565b6101c4565b60e01c90565b60405190565b5f80fd5b5f80fd5b63ffffffff60e01b1690565b61016581610150565b0361016c57565b5f80fd5b9050359061017d8261015c565b565b9060208282031261019857610195915f01610170565b90565b61014c565b151590565b6101ab9061019d565b9052565b91906101c2905f602085019401906101a2565b565b346101f4576101f06101df6101da36600461017f565b61085f565b6101e7610142565b918291826101af565b0390f35b610148565b5f91031261020357565b61014c565b5190565b60209181520190565b90825f9392825e0152565b601f801991011690565b6102496102526020936102579361024081610208565b9384809361020c565b95869101610215565b610220565b0190565b6102709160208201915f81840391015261022a565b90565b346102a3576102833660046101f9565b61029f61028e6109f8565b610296610142565b9182918261025b565b0390f35b610148565b60018060a01b031690565b6102bc906102a8565b90565b6102c8816102b3565b036102cf57565b5f80fd5b905035906102e0826102bf565b565b90565b6102ee816102e2565b036102f557565b5f80fd5b90503590610306826102e5565b565b9190604083820312610330578061032461032d925f86016102d3565b936020016102f9565b90565b61014c565b346103665761036261035161034b366004610308565b90610a0e565b610359610142565b918291826101af565b0390f35b610148565b610374906102e2565b9052565b919061038b905f6020850194019061036b565b565b346103bd5761039d3660046101f9565b6103b96103a8610a5d565b6103b0610142565b91829182610378565b0390f35b610148565b90916060828403126103f7576103f46103dd845f85016102d3565b936103eb81602086016102d3565b936040016102f9565b90565b61014c565b3461042d576104296104186104123660046103c2565b91610a73565b610420610142565b918291826101af565b0390f35b610148565b90565b61043e81610432565b0361044557565b5f80fd5b9050359061045682610435565b565b906020828203126104715761046e915f01610449565b90565b61014c565b61047f90610432565b9052565b9190610496905f60208501940190610476565b565b346104c8576104c46104b36104ae366004610458565b610aec565b6104bb610142565b91829182610483565b0390f35b610148565b91906040838203126104f557806104e96104f2925f8601610449565b936020016102d3565b90565b61014c565b5f0190565b3461052e576105186105123660046104cd565b90610b38565b610520610142565b8061052a816104fa565b0390f35b610148565b60ff1690565b61054290610533565b9052565b9190610559905f60208501940190610539565b565b3461058b5761056b3660046101f9565b610587610576610b6a565b61057e610142565b91829182610546565b0390f35b610148565b346105bf576105a96105a33660046104cd565b90610b80565b6105b1610142565b806105bb816104fa565b0390f35b610148565b346105f3576105dd6105d7366004610308565b90610bf0565b6105e5610142565b806105ef816104fa565b0390f35b610148565b906020828203126106115761060e915f016102d3565b90565b61014c565b346106465761064261063161062c3660046105f8565b610c46565b610639610142565b91829182610378565b0390f35b610148565b3461067c576106786106676106613660046104cd565b90610ca1565b61066f610142565b918291826101af565b0390f35b610148565b346106b1576106913660046101f9565b6106ad61069c610ccb565b6106a4610142565b9182918261025b565b0390f35b610148565b90565b5f1b90565b6106d26106cd6106d7926106b6565b6106b9565b610432565b90565b6106e35f6106be565b90565b6106ee6106da565b90565b34610721576107013660046101f9565b61071d61070c6106e6565b610714610142565b91829182610483565b0390f35b610148565b346107575761075361074261073c366004610308565b90610ce1565b61074a610142565b918291826101af565b0390f35b610148565b7f9f2df0fed2c77648de5860a4cc508cd0818c85b8b8a1ab4ceeef8d981c8956a690565b61078861075c565b90565b346107bb5761079b3660046101f9565b6107b76107a6610780565b6107ae610142565b91829182610483565b0390f35b610148565b346107ef576107d96107d33660046104cd565b90610d2d565b6107e1610142565b806107eb816104fa565b0390f35b610148565b919060408382031261081c5780610810610819925f86016102d3565b936020016102d3565b90565b61014c565b346108525761084e61083d6108373660046107f4565b90610d4f565b610845610142565b91829182610378565b0390f35b610148565b5f80fd5b5f90565b61086761085b565b508061088261087c637965db0b60e01b610150565b91610150565b1490811561088f575b5090565b6108999150610d77565b5f61088b565b606090565b634e487b7160e01b5f52602260045260245ffd5b90600160028304921680156108d8575b60208310146108d357565b6108a4565b91607f16916108c8565b60209181520190565b5f5260205f2090565b905f929180549061090e610907836108b8565b80946108e2565b916001811690815f146109655750600114610929575b505050565b61093691929394506108eb565b915f925b81841061094d57505001905f8080610924565b6001816020929593955484860152019101929061093a565b92949550505060ff19168252151560200201905f8080610924565b9061098a916108f4565b90565b634e487b7160e01b5f52604160045260245ffd5b906109ab90610220565b810190811067ffffffffffffffff8211176109c557604052565b61098d565b906109ea6109e3926109da610142565b93848092610980565b03836109a1565b565b6109f5906109ca565b90565b610a0061089f565b50610a0b60036109ec565b90565b610a2b91610a1a61085b565b50610a23610da1565b919091610dae565b600190565b5f90565b5f1c90565b90565b610a48610a4d91610a34565b610a39565b90565b610a5a9054610a3c565b90565b610a65610a30565b50610a706002610a50565b90565b91610a9d92610a8061085b565b50610a95610a8c610da1565b82908491610e0b565b919091610ed4565b600190565b5f90565b610aaf90610432565b90565b90610abc90610aa6565b5f5260205260405f2090565b90565b610ad7610adc91610a34565b610ac8565b90565b610ae99054610acb565b90565b6001610b05610b0b92610afd610aa2565b506005610ab2565b01610adf565b90565b90610b2991610b24610b1f82610aec565b610f71565b610b2b565b565b90610b3591610fca565b50565b90610b4291610b0e565b565b5f90565b90565b90565b610b62610b5d610b6792610b48565b610b4b565b610533565b90565b610b72610b44565b50610b7d6012610b4e565b90565b9080610b9b610b95610b90610da1565b6102b3565b916102b3565b03610bac57610ba991611076565b50565b5f63334bd91960e11b815280610bc4600482016104fa565b0390fd5b90610be291610bdd610bd861075c565b610f71565b610be4565b565b90610bee91611118565b565b90610bfa91610bc8565b565b610c10610c0b610c15926102a8565b610b4b565b6102a8565b90565b610c2190610bfc565b90565b610c2d90610c18565b90565b90610c3a90610c24565b5f5260205260405f2090565b610c5c610c6191610c55610a30565b505f610c30565b610a50565b90565b90610c6e90610c24565b5f5260205260405f2090565b60ff1690565b610c8c610c9191610a34565b610c7a565b90565b610c9e9054610c80565b90565b610cc8915f610cbd610cc393610cb561085b565b506005610ab2565b01610c64565b610c94565b90565b610cd361089f565b50610cde60046109ec565b90565b610cfe91610ced61085b565b50610cf6610da1565b919091610ed4565b600190565b90610d1e91610d19610d1482610aec565b610f71565b610d20565b565b90610d2a91611076565b50565b90610d3791610d03565b565b90610d4390610c24565b5f5260205260405f2090565b610d7491610d6a610d6f92610d62610a30565b506001610d39565b610c30565b610a50565b90565b610d7f61085b565b50610d99610d936301ffc9a760e01b610150565b91610150565b1490565b5f90565b610da9610d9d565b503390565b91610dbc92916001926111cb565b565b610dc7906102b3565b9052565b604090610df4610dfb9496959396610dea60608401985f850190610dbe565b602083019061036b565b019061036b565b565b90610e0891036102e2565b90565b929192610e19818390610d4f565b9081610e2e610e285f196102e2565b916102e2565b10610e3b575b5050509050565b81610e4e610e48876102e2565b916102e2565b10610e7457610e6b9394610e63919392610dfd565b905f926111cb565b805f8080610e34565b50610e93849291925f938493637dc7a0d960e11b855260048501610dcb565b0390fd5b610eab610ea6610eb0926106b6565b610b4b565b6102a8565b90565b610ebc90610e97565b90565b9190610ed2905f60208501940190610dbe565b565b9182610ef0610eea610ee55f610eb3565b6102b3565b916102b3565b14610f4a5781610f10610f0a610f055f610eb3565b6102b3565b916102b3565b14610f2357610f2192919091611321565b565b610f46610f2f5f610eb3565b5f91829163ec442f0560e01b835260048301610ebf565b0390fd5b610f6d610f565f610eb3565b5f918291634b637e8f60e11b835260048301610ebf565b0390fd5b610f8390610f7d610da1565b906114b3565b565b90610f9160ff916106b9565b9181191691161790565b610fa49061019d565b90565b90565b90610fbf610fba610fc692610f9b565b610fa7565b8254610f85565b9055565b610fd261085b565b50610fe7610fe1828490610ca1565b1561019d565b5f146110705761100f600161100a5f61100260058690610ab2565b018590610c64565b610faa565b90611018610da1565b9061105561104f6110497f2f8788117e7eff1d82e926ec794901d17c78024a50270940304540a733656f0d95610aa6565b92610c24565b92610c24565b9261105e610142565b80611068816104fa565b0390a4600190565b50505f90565b61107e61085b565b5061108a818390610ca1565b5f14611112576110b15f6110ac5f6110a460058690610ab2565b018590610c64565b610faa565b906110ba610da1565b906110f76110f16110eb7ff6391f5c32d9c69d2a47ea670b442974b53935d1edc7fd64eb21e047a839171b95610aa6565b92610c24565b92610c24565b92611100610142565b8061110a816104fa565b0390a4600190565b50505f90565b8061113361112d6111285f610eb3565b6102b3565b916102b3565b1461114f5761114d916111455f610eb3565b919091611321565b565b61117261115b5f610eb3565b5f91829163ec442f0560e01b835260048301610ebf565b0390fd5b906111825f19916106b9565b9181191691161790565b6111a061119b6111a5926102e2565b610b4b565b6102e2565b90565b90565b906111c06111bb6111c79261118c565b6111a8565b8254611176565b9055565b9092816111e86111e26111dd5f610eb3565b6102b3565b916102b3565b146112b357836112086112026111fd5f610eb3565b6102b3565b916102b3565b1461128c5761122c8361122761122060018690610d39565b8790610c30565b6111ab565b611236575b505050565b91909161128161126f6112697f8c5be1e5ebec7d5bd14f71427d1e84f3dd0314c0f7b2291e5b200ac8c7c3b92593610c24565b93610c24565b93611278610142565b91829182610378565b0390a35f8080611231565b6112af6112985f610eb3565b5f918291634a1406b160e11b835260048301610ebf565b0390fd5b6112d66112bf5f610eb3565b5f91829163e602df0560e01b835260048301610ebf565b0390fd5b634e487b7160e01b5f52601160045260245ffd5b6112fd611303919392936102e2565b926102e2565b820180921161130e57565b6112da565b9061131e91016102e2565b90565b9190918061133f6113396113345f610eb3565b6102b3565b916102b3565b145f146114205761136361135c836113576002610a50565b6112ee565b60026111ab565b5b8261137f6113796113745f610eb3565b6102b3565b916102b3565b145f146113f4576113a361139c836113976002610a50565b610dfd565b60026111ab565b5b9190916113ef6113dd6113d77fddf252ad1be2c89b69c2b068fc378daa952ba7f163c4a11628f55a4df523b3ef93610c24565b93610c24565b936113e6610142565b91829182610378565b0390a3565b61141b826114156114065f8790610c30565b9161141083610a50565b611313565b906111ab565b6113a4565b61143361142e5f8390610c30565b610a50565b80611446611440856102e2565b916102e2565b1061146e57611459611469918490610dfd565b6114645f8490610c30565b6111ab565b611364565b9061148c9091925f93849363391434e360e21b855260048501610dcb565b0390fd5b9160206114b19294936114aa60408201965f830190610dbe565b0190610476565b565b906114c86114c2838390610ca1565b1561019d565b6114d0575050565b6114ea5f92839263e2517d3f60e01b845260048401611490565b0390fdfea264697066735822122031817a01b1ec3025492b120ba8f63532d4fcf2d498e87cb7c53c9438e710bdb264736f6c63430008210033",
        "linkReferences": {}
    },
    "methodIdentifiers": {
        "DEFAULT_ADMIN_ROLE()": "a217fddf",
        "MINTER_ROLE()": "d5391393",
        "allowance(address,address)": "dd62ed3e",
        "approve(address,uint256)": "095ea7b3",
        "balanceOf(address)": "70a08231",
        "decimals()": "313ce567",
        "getRoleAdmin(bytes32)": "248a9ca3",
        "grantRole(bytes32,address)": "2f2ff15d",
        "hasRole(bytes32,address)": "91d14854",
        "mint(address,uint256)": "40c10f19",
        "name()": "06fdde03",
        "renounceRole(bytes32,address)": "36568abe",
        "revokeRole(bytes32,address)": "d547741f",
        "supportsInterface(bytes4)": "01ffc9a7",
        "symbol()": "95d89b41",
        "totalSupply()": "18160ddd",
        "transfer(address,uint256)": "a9059cbb",
        "transferFrom(address,address,uint256)": "23b872dd"
    },
    "id": 32
}