{"abi":[{"type":"function","name":"answer","inputs":[],"outputs":[{"name":"","type":"int256","internalType":"int256"}],"stateMutability":"view"},{"type":"function","name":"latestRoundData","inputs":[],"outputs":[{"name":"roundId","type":"uint80","internalType":"uint80"},{"name":"_answer","type":"int256","internalType":"int256"},{"name":"startedAt","type":"uint256","internalType":"uint256"},{"name":"updatedAt","type":"uint256","internalType":"uint256"},{"name":"answeredInRound","type":"uint80","internalType":"uint80"}],"stateMutability":"view"},{"type":"function","name":"setAnswer","inputs":[{"name":"_answer","type":"int256","internalType":"int256"}],"outputs":[],"stateMutability":"nonpayable"}],"bytecode":{"object":"0x608060405234601c57600e6020565b61037a61002b823961037a90f35b6026565b60405190565b5f80fdfe60806040526004361015610013575b61022f565b61001d5f3561004c565b806385bb7d691461004757806399213cd8146100425763feaf968c0361000e576101f6565b61014a565b6100cf565b60e01c90565b60405190565b5f80fd5b5f80fd5b5f91031261006a57565b61005c565b1c90565b90565b61008690600861008b930261006f565b610073565b90565b906100999154610076565b90565b6100a75f5f9061008e565b90565b90565b6100b6906100aa565b9052565b91906100cd905f602085019401906100ad565b565b346100ff576100df366004610060565b6100fb6100ea61009c565b6100f2610052565b918291826100ba565b0390f35b610058565b61010d816100aa565b0361011457565b5f80fd5b9050359061012582610104565b565b906020828203126101405761013d915f01610118565b90565b61005c565b5f0190565b346101785761016261015d366004610127565b610290565b61016a610052565b8061017481610145565b0390f35b610058565b69ffffffffffffffffffff1690565b6101959061017d565b9052565b90565b6101a590610199565b9052565b909594926101f4946101e36101ed926101d96080966101cf60a088019c5f89019061018c565b60208701906100ad565b604085019061019c565b606083019061019c565b019061018c565b565b3461022a57610206366004610060565b6102266102116102ed565b9161021d959395610052565b958695866101a9565b0390f35b610058565b5f80fd5b5f1b90565b906102445f1991610233565b9181191691161790565b90565b61026561026061026a926100aa565b61024e565b6100aa565b90565b90565b9061028561028061028c92610251565b61026d565b8254610238565b9055565b61029a905f610270565b565b5f90565b5f90565b5f90565b5f1c90565b6102b96102be916102a8565b610073565b90565b6102cb90546102ad565b90565b90565b6102e56102e06102ea926102ce565b61024e565b61017d565b90565b6102f561029c565b506102fe6102a0565b506103076102a4565b506103106102a4565b5061031961029c565b5060016103255f6102c1565b91429142916103416103386001936102d1565b959493926102d1565b9056fea2646970667358221220c518af1f210def5e00ed06f29a91ad5a13e9f997e7c01735532404d401d4087f64736f6c63430008210033","linkReferences":{}},"methodIdentifiers":{"answer()":"85bb7d69","latestRoundData()":"feaf968c","setAnswer(int256)":"99213cd8"},"id":29}