{"abi":[{"type":"constructor","inputs":[{"name":"_priceFeed","type":"address","internalType":"address"}],"stateMutability":"nonpayable"},{"type":"function","name":"btcUsdPriceFeed","inputs":[],"outputs":[{"name":"","type":"address","internalType":"contract AggregatorV3Interface"}],"stateMutability":"view"},{"type":"function","name":"closePosition","inputs":[],"outputs":[],"stateMutability":"nonpayable"},{"type":"function","name":"depositCollateral","inputs":[{"name":"amount","type":"uint256","internalType":"uint256"}],"outputs":[],"stateMutability":"nonpayable"},{"type":"function","name":"globalFundingIndex","inputs":[],"outputs":[{"name":"","type":"int256","internalType":"int256"}],"stateMutability":"view"},{"type":"function","name":"globalFundingRateBps","inputs":[],"outputs":[{"name":"","type":"uint256","internalType":"uint256"}],"stateMutability":"view"},{"type":"function","name":"hBTC_Token","inputs":[],"outputs":[{"name":"","type":"address","internalType":"contract IERC20"}],"stateMutability":"view"},{"type":"function","name":"initialMarginBps","inputs":[],"outputs":[{"name":"","type":"uint256","internalType":"uint256"}],"stateMutability":"view"},{"type":"function","name":"lastFundingTime","inputs":[],"outputs":[{"name":"","type":"uint256","internalType":"uint256"}],"stateMutability":"view"},{"type":"function","name":"liquidate","inputs":[{"name":"targetUser","type":"address","internalType":"address"}],"outputs":[],"stateMutability":"nonpayable"},{"type":"function","name":"liquidationRewardBps","inputs":[],"outputs":[{"name":"","type":"uint256","internalType":"uint256"}],"stateMutability":"view"},{"type":"function","name":"maintenanceMarginBps","inputs":[],"outputs":[{"name":"","type":"uint256","internalType":"uint256"}],"stateMutability":"view"},{"type":"function","name":"openPosition","inputs":[{"name":"sizeUsd","type":"uint256","internalType":"uint256"},{"name":"isLong","type":"bool","internalType":"bool"}],"outputs":[],"stateMutability":"nonpayable"},{"type":"function","name":"owner","inputs":[],"outputs":[{"name":"","type":"address","internalType":"address"}],"stateMutability":"view"},{"type":"function","name":"positions","inputs":[{"name":"","type":"address","internalType":"address"}],"outputs":[{"name":"sizeUsd","type":"uint256","internalType":"uint256"},{"name":"collateral","type":"uint256","internalType":"uint256"},{"name":"entryPrice","type":"uint256","internalType":"uint256"},{"name":"isLong","type":"bool","internalType":"bool"}],"stateMutability":"view"},{"type":"function","name":"renounceOwnership","inputs":[],"outputs":[],"stateMutability":"nonpayable"},{"type":"function","name":"setCollateralToken","inputs":[{"name":"_token","type":"address","internalType":"address"}],"outputs":[],"stateMutability":"nonpayable"},{"type":"function","name":"setRiskParameters","inputs":[{"name":"_maintenanceMarginBps","type":"uint256","internalType":"uint256"},{"name":"_liquidationRewardBps","type":"uint256","internalType":"uint256"}],"outputs":[],"stateMutability":"nonpayable"},{"type":"function","name":"transferOwnership","inputs":[{"name":"newOwner","type":"address","internalType":"address"}],"outputs":[],"stateMutability":"nonpayable"},{"type":"event","name":"CollateralDeposited","inputs":[{"name":"user","type":"address","indexed":true,"internalType":"address"},{"name":"amount","type":"uint256","indexed":false,"internalType":"uint256"}],"anonymous":false},{"type":"event","name":"OwnershipTransferred","inputs":[{"name":"previousOwner","type":"address","indexed":true,"internalType":"address"},{"name":"newOwner","type":"address","indexed":true,"internalType":"address"}],"anonymous":false},{"type":"event","name":"PositionClosed","inputs":[{"name":"user","type":"address","indexed":true,"internalType":"address"},{"name":"pnl","type":"uint256","indexed":false,"internalType":"uint256"},{"name":"payout","type":"uint256","indexed":false,"internalType":"uint256"}],"anonymous":false},{"type":"event","name":"PositionLiquidated","inputs":[{"name":"user","type":"address","indexed":true,"internalType":"address"},{"name":"liquidator","type":"address","indexed":true,"internalType":"address"},{"name":"reward","type":"uint256","indexed":false,"internalType":"uint256"}],"anonymous":false},{"type":"event","name":"PositionOpened","inputs":[{"name":"user","type":"address","indexed":true,"internalType":"address"},{"name":"sizeUsd","type":"uint256","indexed":false,"internalType":"uint256"},{"name":"isLong","type":"bool","indexed":false,"internalType":"bool"},{"name":"entryPrice","type":"uint256","indexed":false,"internalType":"uint256"}],"anonymous":false},{"type":"event","name":"RiskParametersUpdated","inputs":[{"name":"maintenanceMarginBps","type":"uint256","indexed":false,"internalType":"uint256"},{"name":"liquidationRewardBps","type":"uint256","indexed":false,"internalType":"uint256"}],"anonymous":false},{"type":"error","name":"OwnableInvalidOwner","inputs":[{"name":"owner","type":"address","internalType":"address"}]},{"type":"error","name":"OwnableUnauthorizedAccount","inputs":[{"name":"account","type":"address","internalType":"address"}]}],"bytecode":{"object":"0x60806040523461002f576100196100146100f4565b6102b0565b610021610034565b61253361047c823961253390f35b61003a565b60405190565b5f80fd5b601f801991011690565b634e487b7160e01b5f52604160045260245ffd5b906100669061003e565b810190811060018060401b0382111761007e57604052565b610048565b9061009661008f610034565b928361005c565b565b5f80fd5b60018060a01b031690565b6100b09061009c565b90565b6100bc816100a7565b036100c357565b5f80fd5b905051906100d4826100b3565b565b906020828203126100ef576100ec915f016100c7565b90565b610098565b6101126129af8038038061010781610083565b9283398101906100d6565b90565b5f1b90565b906101265f1991610115565b9181191691161790565b90565b90565b90565b61014d61014861015292610130565b610136565b610133565b90565b90565b9061016d61016861017492610139565b610155565b825461011a565b9055565b90565b61018f61018a61019492610178565b610136565b610133565b90565b906101ac6101a76101b39261017b565b610155565b825461011a565b9055565b90565b6101ce6101c96101d3926101b7565b610136565b610133565b90565b906101eb6101e66101f2926101ba565b610155565b825461011a565b9055565b61020a61020561020f9261009c565b610136565b61009c565b90565b61021b906101f6565b90565b61022790610212565b90565b9061023b60018060a01b0391610115565b9181191691161790565b61024e90610212565b90565b90565b9061026961026461027092610245565b610251565b825461022a565b9055565b61028861028361028d92610133565b610136565b610133565b90565b906102a56102a06102ac92610274565b610155565b825461011a565b9055565b6102f86102ff916102c033610359565b6102cd6101f46001610158565b6102da6101f46002610158565b6102e76103e86003610197565b6102f3600160056101d6565b61021e565b6007610254565b61030a426006610290565b565b90565b61032361031e6103289261030c565b610136565b61009c565b90565b6103349061030f565b90565b610340906100a7565b9052565b9190610357905f60208501940190610337565b565b8061037461036e6103695f61032b565b6100a7565b916100a7565b14610384576103829061041c565b565b6103a76103905f61032b565b5f918291631e4fbdf760e01b835260048301610344565b0390fd5b5f1c90565b60018060a01b031690565b6103c76103cc916103ab565b6103b0565b90565b6103d990546103bb565b90565b6103e5906101f6565b90565b6103f1906103dc565b90565b90565b9061040c610407610413926103e8565b6103f4565b825461022a565b9055565b5f0190565b6104255f6103cf565b61042f825f6103f7565b9061046361045d7f8be0079c531659141344cd1fd0a4f28419497f9722a3daafe3b4186f6b6457e0936103e8565b916103e8565b9161046c610034565b8061047681610417565b0390a356fe60806040526004361015610013575b61094c565b61001d5f3561013c565b80630866eaeb146101375780632f86556814610132578063321d7fa91461012d578063507fc5641461012857806355f57510146101235780635d9ce6731461011e578063666181a914610119578063715018a614610114578063801152fd1461010f5780638d404e821461010a5780638da5cb5b14610105578063a719f94314610100578063bad4a01f146100fb578063bcb8faaa146100f6578063c393d0e3146100f1578063cb4ed795146100ec578063effaed89146100e75763f2fde38b0361000e57610919565b6108e4565b6108a0565b61085e565b61082a565b6107ca565b610777565b610733565b6106dc565b610639565b6105a9565b610576565b610542565b610496565b610362565b61031e565b61028e565b610207565b60e01c90565b60405190565b5f80fd5b5f80fd5b5f91031261015a57565b61014c565b1c90565b60018060a01b031690565b61017e906008610183930261015f565b610163565b90565b90610191915461016e565b90565b6101a060085f90610186565b90565b60018060a01b031690565b90565b6101c56101c06101ca926101a3565b6101ae565b6101a3565b90565b6101d6906101b1565b90565b6101e2906101cd565b90565b6101ee906101d9565b9052565b9190610205905f602085019401906101e5565b565b3461023757610217366004610150565b610233610222610194565b61022a610142565b918291826101f2565b0390f35b610148565b610245906101a3565b90565b6102518161023c565b0361025857565b5f80fd5b9050359061026982610248565b565b9060208282031261028457610281915f0161025c565b90565b61014c565b5f0190565b346102bc576102a66102a136600461026b565b611026565b6102ae610142565b806102b881610289565b0390f35b610148565b90565b6102d49060086102d9930261015f565b6102c1565b90565b906102e791546102c4565b90565b6102f660065f906102dc565b90565b90565b610305906102f9565b9052565b919061031c905f602085019401906102fc565b565b3461034e5761032e366004610150565b61034a6103396102ea565b610341610142565b91829182610309565b0390f35b610148565b61035f60055f906102dc565b90565b3461039257610372366004610150565b61038e61037d610353565b610385610142565b91829182610309565b0390f35b610148565b6103a0906101cd565b90565b906103ad90610397565b5f5260205260405f2090565b5f1c90565b6103ca6103cf916103b9565b6102c1565b90565b6103dc90546103be565b90565b60ff1690565b6103f16103f6916103b9565b6103df565b90565b61040390546103e5565b90565b6104119060096103a3565b9061041d5f83016103d2565b9161042a600182016103d2565b91610443600361043c600285016103d2565b93016103f9565b90565b151590565b61045490610446565b9052565b61048d61049494610483606094989795610479608086019a5f8701906102fc565b60208501906102fc565b60408301906102fc565b019061044b565b565b346104ca576104c66104b16104ac36600461026b565b610406565b906104bd949294610142565b94859485610458565b0390f35b610148565b6104d8816102f9565b036104df57565b5f80fd5b905035906104f0826104cf565b565b6104fb81610446565b0361050257565b5f80fd5b90503590610513826104f2565b565b919060408382031261053d578061053161053a925f86016104e3565b93602001610506565b90565b61014c565b346105715761055b610555366004610515565b90611687565b610563610142565b8061056d81610289565b0390f35b610148565b346105a45761058e61058936600461026b565b611917565b610596610142565b806105a081610289565b0390f35b610148565b346105d7576105b9366004610150565b6105c161196f565b6105c9610142565b806105d381610289565b0390f35b610148565b90565b6105ef9060086105f4930261015f565b6105dc565b90565b9061060291546105df565b90565b61061160045f906105f7565b90565b90565b61062090610614565b9052565b9190610637905f60208501940190610617565b565b3461066957610649366004610150565b610665610654610605565b61065c610142565b91829182610624565b0390f35b610148565b60018060a01b031690565b61068990600861068e930261015f565b61066e565b90565b9061069c9154610679565b90565b6106ab60075f90610691565b90565b6106b7906101cd565b90565b6106c3906106ae565b9052565b91906106da905f602085019401906106ba565b565b3461070c576106ec366004610150565b6107086106f761069f565b6106ff610142565b918291826106c7565b0390f35b610148565b61071a9061023c565b9052565b9190610731905f60208501940190610711565b565b3461076357610743366004610150565b61075f61074e6119a9565b610756610142565b9182918261071e565b0390f35b610148565b61077460015f906102dc565b90565b346107a757610787366004610150565b6107a3610792610768565b61079a610142565b91829182610309565b0390f35b610148565b906020828203126107c5576107c2915f016104e3565b90565b61014c565b346107f8576107e26107dd3660046107ac565b611ba7565b6107ea610142565b806107f481610289565b0390f35b610148565b91906040838203126108255780610819610822925f86016104e3565b936020016104e3565b90565b61014c565b346108595761084361083d3660046107fd565b90611ed6565b61084b610142565b8061085581610289565b0390f35b610148565b3461088c5761086e366004610150565b610876611ee2565b61087e610142565b8061088881610289565b0390f35b610148565b61089d60035f906102dc565b90565b346108d0576108b0366004610150565b6108cc6108bb610891565b6108c3610142565b91829182610309565b0390f35b610148565b6108e160025f906102dc565b90565b34610914576108f4366004610150565b6109106108ff6108d5565b610907610142565b91829182610309565b0390f35b610148565b346109475761093161092c36600461026b565b6122cd565b610939610142565b8061094381610289565b0390f35b610148565b5f80fd5b90565b90565b61096a61096561096f92610953565b6101ae565b6102f9565b90565b60209181520190565b5f7f4e6f2061637469766520706f736974696f6e0000000000000000000000000000910152565b6109af6012602092610972565b6109b88161097b565b0190565b6109d19060208101905f8183039101526109a2565b90565b156109db57565b6109e3610142565b62461bcd60e51b8152806109f9600482016109bc565b0390fd5b610a09610a0e916103b9565b61066e565b90565b610a1b90546109fd565b90565b601f801991011690565b634e487b7160e01b5f52604160045260245ffd5b90610a4690610a1e565b810190811067ffffffffffffffff821117610a6057604052565b610a28565b60e01b90565b69ffffffffffffffffffff1690565b610a8381610a6b565b03610a8a57565b5f80fd5b90505190610a9b82610a7a565b565b610aa681610614565b03610aad57565b5f80fd5b90505190610abe82610a9d565b565b90505190610acd826104cf565b565b919060a083820312610b2057610ae7815f8501610a8e565b92610af58260208301610ab1565b92610b1d610b068460408501610ac0565b93610b148160608601610ac0565b93608001610a8e565b90565b61014c565b610b2d610142565b3d5f823e3d90fd5b610b49610b44610b4e92610953565b6101ae565b610614565b90565b5f7f496e76616c6964204f7261636c65205072696365000000000000000000000000910152565b610b856014602092610972565b610b8e81610b51565b0190565b610ba79060208101905f818303910152610b78565b90565b15610bb157565b610bb9610142565b62461bcd60e51b815280610bcf60048201610b92565b0390fd5b610be7610be2610bec92610614565b6101ae565b6102f9565b90565b90565b610c06610c01610c0b92610bef565b6101ae565b6102f9565b90565b634e487b7160e01b5f52601160045260245ffd5b610c31610c37919392936102f9565b926102f9565b91610c438382026102f9565b928184041490151715610c5257565b610c0e565b90565b610c6e610c69610c7392610c57565b6101ae565b6102f9565b90565b634e487b7160e01b5f52601260045260245ffd5b610c96610c9c916102f9565b916102f9565b908115610ca7570490565b610c76565b610cc0610cbb610cc5926102f9565b6101ae565b610614565b90565b5f90565b610cdb610ce191939293610614565b92610614565b91828103925f828512818312169285139112151617610cfc57565b610c0e565b610d10610d1691939293610614565b92610614565b91610d22838202610614565b92600160ff1b81145f831216610d45578184051490151715610d4057565b610c0e565b610c0e565b610d56610d5c91610614565b91610614565b908115610d7e5760015f038214600160ff1b821416610d79570590565b610c0e565b610c76565b610d92610d9891939293610614565b92610614565b808301925f82851215818312169285129112151617610db357565b610c0e565b5f90565b90565b610dd3610dce610dd892610dbc565b6101ae565b6102f9565b90565b5f7f506f736974696f6e206973206865616c74687920284846203e3d203129000000910152565b610e0f601d602092610972565b610e1881610ddb565b0190565b610e319060208101905f818303910152610e02565b90565b15610e3b57565b610e43610142565b62461bcd60e51b815280610e5960048201610e1c565b0390fd5b1b90565b91906008610e7c910291610e765f1984610e5d565b92610e5d565b9181191691161790565b610e9a610e95610e9f926102f9565b6101ae565b6102f9565b90565b90565b9190610ebb610eb6610ec393610e86565b610ea2565b908354610e61565b9055565b610ed991610ed3610db8565b91610ea5565b565b60035f91610eeb83808301610ec7565b610ef88360018301610ec7565b610f058360028301610ec7565b0155565b634e487b7160e01b5f525f60045260245ffd5b905f03610f2e57610f2c90610edb565b565b610f09565b610f3f610f44916103b9565b610163565b90565b610f519054610f33565b90565b90505190610f61826104f2565b565b90602082820312610f7c57610f79915f01610f54565b90565b61014c565b916020610fa2929493610f9b60408201965f830190610711565b01906102fc565b565b5f7f526577617264207472616e73666572206661696c656400000000000000000000910152565b610fd86016602092610972565b610fe181610fa4565b0190565b610ffa9060208101905f818303910152610fcb565b90565b1561100457565b61100c610142565b62461bcd60e51b81528061102260048201610fe5565b0390fd5b61103a611035600983906103a3565b610950565b6110606110485f83016103d2565b61105a6110545f610956565b916102f9565b116109d4565b61108d60a06110776110726007610a11565b6106ae565b63feaf968c90611085610142565b938492610a65565b8252818061109d60048201610289565b03915afa801561144b57611268926112426110fc6110e861124794611257965f8092905061141a575b506110e3816110dd6110d75f610b35565b91610614565b13610baa565b610bd3565b6110f66402540be400610bf2565b90610c22565b9161123d5f611112670de0b6b3a7640000610c5a565b926111ca61113361112e611127878890610c22565b8990610c8a565b610cac565b61115b611156611144888990610c22565b611150600287016103d2565b90610c8a565b610cac565b90611164610cc8565b50611171600385016103f9565b85146113dc576111b09161119b6111a1926111956111908989016103d2565b610cac565b92610ccc565b90610d01565b6111aa87610cac565b90610d4a565b5b6111c56111c0600185016103d2565b610cac565b610d83565b806111dd6111d785610b35565b91610614565b1383146113cd576111ed90610bd3565b5b6111f6610db8565b508061120a61120485610956565b916102f9565b14831461137f575061123761121e83610956565b5b61123161122b876102f9565b916102f9565b10610e34565b016103d2565b610c22565b610c8a565b61125160026103d2565b90610c22565b611262612710610dbf565b90610c8a565b9061127e5f611279600984906103a3565b610f1c565b8161129161128b5f610956565b916102f9565b116112e8575b903390916112e36112d16112cb7ff2f51441117ac1865376b3f32be7c7b7f01c5a67fbcf4e44f3ae8bacc03b5a9093610397565b93610397565b936112da610142565b91829182610309565b0390a3565b6112fa6112f56008610f47565b6101d9565b602063a9059cbb9133906113215f879561132c611315610142565b97889687958694610a65565b845260048401610f81565b03925af1801561137a57611347915f9161134c575b50610ffd565b611297565b61136d915060203d8111611373575b6113658183610a3c565b810190610f63565b5f611341565b503d61135b565b610b25565b6113c8611390611237928990610c22565b6113c26113b16113a18787016103d2565b6113ab60016103d2565b90610c22565b6113bc612710610dbf565b90610c8a565b90610c8a565b61121f565b506113d782610956565b6111ee565b61140690611400611415936113fa6113f58989016103d2565b610cac565b92610ccc565b90610d01565b61140f87610cac565b90610d4a565b6111b1565b61143b915060a03d8111611444575b6114338183610a3c565b810190610acf565b505050906110c6565b503d611429565b610b25565b5f7f4f6e6c7920312061637469766520706f736974696f6e207065726d6974746564910152565b61148360208092610972565b61148c81611450565b0190565b6114a59060208101905f818303910152611477565b90565b156114af57565b6114b7610142565b62461bcd60e51b8152806114cd60048201611490565b0390fd5b5f7f496e76616c69642073697a650000000000000000000000000000000000000000910152565b611505600c602092610972565b61150e816114d1565b0190565b6115279060208101905f8183039101526114f8565b90565b1561153157565b611539610142565b62461bcd60e51b81528061154f60048201611512565b0390fd5b5f7f496e73756666696369656e74206d617267696e20746f206f70656e0000000000910152565b611587601b602092610972565b61159081611553565b0190565b6115a99060208101905f81830391015261157a565b90565b156115b357565b6115bb610142565b62461bcd60e51b8152806115d160048201611594565b0390fd5b5f1b90565b906115e65f19916115d5565b9181191691161790565b9061160561160061160c92610e86565b610ea2565b82546115da565b9055565b9061161c60ff916115d5565b9181191691161790565b61162f90610446565b90565b90565b9061164a61164561165192611626565b611632565b8254611610565b9055565b60409061167e611685949695939661167460608401985f8501906102fc565b602083019061044b565b01906102fc565b565b61168f61237c565b6116a361169e600933906103a3565b610950565b6116c96116b15f83016103d2565b6116c36116bd5f610956565b916102f9565b146114a8565b6116e5826116df6116d95f610956565b916102f9565b1161152a565b61171260a06116fc6116f76007610a11565b6106ae565b63feaf968c9061170a610142565b938492610a65565b8252818061172260048201610289565b03915afa8015611888576117636117779161180e935f80929050611857575b5061175e816117586117525f610b35565b91610614565b13610baa565b610bd3565b6117716402540be400610bf2565b90610c22565b916117eb6117c66117b56117a561179e611798670de0b6b3a7640000610c5a565b89610c22565b8790610c8a565b6117af60036103d2565b90610c22565b6117c0612710610dbf565b90610c8a565b6117e46117de6117d8600186016103d2565b926102f9565b916102f9565b10156115ac565b6117f7845f83016115f0565b6118048560038301611635565b60028391016115f0565b33919290926118526118407f32d28a74dc454277700093ba2bfee55a712f127927bcb35bfa8cbc581204454194610397565b94611849610142565b93849384611655565b0390a2565b611878915060a03d8111611881575b6118708183610a3c565b810190610acf565b50505090611741565b503d611866565b610b25565b61189e90611899612420565b611902565b565b6118a9906101b1565b90565b6118b5906118a0565b90565b906118c960018060a01b03916115d5565b9181191691161790565b6118dc906118a0565b90565b90565b906118f76118f26118fe926118d3565b6118df565b82546118b8565b9055565b61190e611915916118ac565b60086118e2565b565b6119209061188d565b565b61192a612420565b61193261195c565b565b61194861194361194d92610953565b6101ae565b6101a3565b90565b61195990611934565b90565b61196d6119685f611950565b612491565b565b611977611922565b565b5f90565b60018060a01b031690565b611994611999916103b9565b61197d565b90565b6119a69054611988565b90565b6119b1611979565b506119bb5f61199c565b90565b5f7f546f6b656e206e6f7420636f6e66696775726564000000000000000000000000910152565b6119f26014602092610972565b6119fb816119be565b0190565b611a149060208101905f8183039101526119e5565b90565b15611a1e57565b611a26610142565b62461bcd60e51b815280611a3c600482016119ff565b0390fd5b5f7f416d6f756e74206d757374206265203e20300000000000000000000000000000910152565b611a746012602092610972565b611a7d81611a40565b0190565b611a969060208101905f818303910152611a67565b90565b15611aa057565b611aa8610142565b62461bcd60e51b815280611abe60048201611a81565b0390fd5b611acb906101cd565b90565b604090611af7611afe9496959396611aed60608401985f850190610711565b6020830190610711565b01906102fc565b565b5f7f5472616e73666572206661696c65640000000000000000000000000000000000910152565b611b34600f602092610972565b611b3d81611b00565b0190565b611b569060208101905f818303910152611b27565b90565b15611b6057565b611b68610142565b62461bcd60e51b815280611b7e60048201611b41565b0390fd5b611b91611b97919392936102f9565b926102f9565b8201809211611ba257565b610c0e565b611bdd611bbc611bb76008610f47565b6101d9565b611bd6611bd0611bcb5f611950565b61023c565b9161023c565b1415611a17565b611bf981611bf3611bed5f610956565b916102f9565b11611a99565b611c0b611c066008610f47565b6101d9565b60206323b872dd913390611c3b5f611c2230611ac2565b95611c4688611c2f610142565b98899788968795610a65565b855260048501611ace565b03925af18015611d0857611c61915f91611cda575b50611b59565b611c95611c78611c73600933906103a3565b610950565b611c8f600184920191611c8a836103d2565b611b82565b906115f0565b33611cd5611cc37fd7243f6f8212d5188fd054141cf6ea89cfc0d91facb8c3afe2f88a135848014292610397565b92611ccc610142565b91829182610309565b0390a2565b611cfb915060203d8111611d01575b611cf38183610a3c565b810190610f63565b5f611c5b565b503d611ce9565b610b25565b90611d1f91611d1a612420565b611e48565b565b5f7f496e76616c6964206d61696e74656e616e6365206d617267696e000000000000910152565b611d55601a602092610972565b611d5e81611d21565b0190565b611d779060208101905f818303910152611d48565b90565b15611d8157565b611d89610142565b62461bcd60e51b815280611d9f60048201611d62565b0390fd5b5f7f496e76616c6964206c69717569646174696f6e20726577617264000000000000910152565b611dd7601a602092610972565b611de081611da3565b0190565b611df99060208101905f818303910152611dca565b90565b15611e0357565b611e0b610142565b62461bcd60e51b815280611e2160048201611de4565b0390fd5b916020611e46929493611e3f60408201965f8301906102fc565b01906102fc565b565b611e6681611e60611e5a612710610dbf565b916102f9565b10611d7a565b611e8482611e7e611e78612710610dbf565b916102f9565b10611dfc565b611e8f8160016115f0565b611e9a8260026115f0565b907fe9ccdaef018ec6b918313a3c46909b5339c4283c5c26068089df4f91b4edae6091611ed1611ec8610142565b92839283611e25565b0390a1565b90611ee091611d0d565b565b611eea61237c565b611efe611ef9600933906103a3565b610950565b611f24611f0c5f83016103d2565b611f1e611f185f610956565b916102f9565b116109d4565b611f5160a0611f3b611f366007610a11565b6106ae565b63feaf968c90611f49610142565b938492610a65565b82528180611f6160048201610289565b03915afa908115612263576120736001611fbf611fab61207f95612078955f80929050612232575b50611fa681611fa0611f9a5f610b35565b91610614565b13610baa565b610bd3565b611fb96402540be400610bf2565b90610c22565b611fec611fe7611fd6670de0b6b3a7640000610c5a565b92611fe2848590610c22565b610c8a565b610cac565b90612015612010611ffe838490610c22565b61200a60028b016103d2565b90610c8a565b610cac565b9161201e610cc8565b508761202c600382016103f9565b5f146121f35761206b936120596120659361205361204e5f61205f96016103d2565b610cac565b92610ccc565b90610d01565b91610cac565b90610d4a565b945b016103d2565b610cac565b8290610d83565b8061209261208c5f610b35565b91610614565b135f146121e4576120a290610bd3565b5b906120b95f6120b4600933906103a3565b610f1c565b816120cc6120c65f610956565b916102f9565b1161214d575b3390806120e76120e15f610b35565b91610614565b135f1461213d576120f790610bd3565b915b6121237fc8469f8998427d0814b7efed804617bd8c43dfdfb3c6780d28a03ecf361fb69892610397565b9261213861212f610142565b92839283611e25565b0390a2565b506121475f610956565b916120f9565b61215f61215a6008610f47565b6101d9565b602063a9059cbb9133906121865f879561219161217a610142565b97889687958694610a65565b845260048401610f81565b03925af180156121df576121ac915f916121b1575b50611b59565b6120d2565b6121d2915060203d81116121d8575b6121ca8183610a3c565b810190610f63565b5f6121a6565b503d6121c0565b610b25565b506121ee5f610956565b6120a3565b6122269161221a61222c9561221461220f5f61222096016103d2565b610cac565b92610ccc565b90610d01565b91610cac565b90610d4a565b9461206d565b612253915060a03d811161225c575b61224b8183610a3c565b810190610acf565b50505090611f89565b503d612241565b610b25565b61227990612274612420565b61227b565b565b8061229661229061228b5f611950565b61023c565b9161023c565b146122a6576122a490612491565b565b6122c96122b25f611950565b5f918291631e4fbdf760e01b83526004830161071e565b0390fd5b6122d690612268565b565b6122e76122ed919392936102f9565b926102f9565b82039182116122f857565b610c0e565b90565b61231461230f612319926122fd565b6101ae565b6102f9565b90565b61232861232d916103b9565b6105dc565b90565b61233a905461231c565b90565b61235161234c61235692610614565b6101ae565b610614565b90565b90565b9061237161236c6123789261233d565b612359565b82546115da565b9055565b6123904261238a60066103d2565b906122d8565b806123a361239d5f610956565b916102f9565b1461241d576124096123fa6123f56123e26123cb612410956123c560056103d2565b90610c22565b6123dc670de0b6b3a7640000610c5a565b90610c22565b6123ef63112a8800612300565b90610c8a565b610cac565b6124046004612330565b610d83565b600461235c565b61241b4260066115f0565b565b50565b6124286119a9565b61244161243b6124366124f0565b61023c565b9161023c565b0361244857565b61246a6124536124f0565b5f91829163118cdaa760e01b83526004830161071e565b0390fd5b90565b9061248661248161248d92610397565b61246e565b82546118b8565b9055565b61249a5f61199c565b6124a4825f612471565b906124d86124d27f8be0079c531659141344cd1fd0a4f28419497f9722a3daafe3b4186f6b6457e093610397565b91610397565b916124e1610142565b806124eb81610289565b0390a3565b6124f8611979565b50339056fea2646970667358221220e1e97600e4c0d7c4e89e1df8b6ffab15d2ef8f18bd4ecb70e39973f3c03bac2864736f6c63430008210033","linkReferences":{}},"methodIdentifiers":{"btcUsdPriceFeed()":"8d404e82","closePosition()":"c393d0e3","depositCollateral(uint256)":"bad4a01f","globalFundingIndex()":"801152fd","globalFundingRateBps()":"507fc564","hBTC_Token()":"0866eaeb","initialMarginBps()":"cb4ed795","lastFundingTime()":"321d7fa9","liquidate(address)":"2f865568","liquidationRewardBps()":"effaed89","maintenanceMarginBps()":"a719f943","openPosition(uint256,bool)":"5d9ce673","owner()":"8da5cb5b","positions(address)":"55f57510","renounceOwnership()":"715018a6","setCollateralToken(address)":"666181a9","setRiskParameters(uint256,uint256)":"bcb8faaa","transferOwnership(address)":"f2fde38b"},"id":31}